:0300000002004CAF
:200008000000E2FBEAF2802C0000E0FBEAF08024E6B50202EBF62200E2B50202EBF22200DE
:20002800E0B50202EBF02230F6E0A88220F5D3EAC6F582228B822230F6E6A88220F5D980EE
:01004800CFE8
:0900A500750840750900020049CC
:030049000200F2C0
:2000AE00AE82AF83EE4F60147C0B7D001CBCFF011DEC4D70F71EBEFF011F80E822AE82AF22
:2000CE0083C2A58E828F83C007C0061200AED006D007D2A5AC08AD09ECC39EF582ED9FF5E6
:2000EE00830200AE7E007F00AC08AD09C3EE9CEF9D50457C007D00AA08AB09EAC39EFAEB5B
:20010E009FC313CA13CAC313CA13CAFBC3EC9AED9B501E8E828F83C007C006C005C00412B4
:20012E0000CBD004D005D006D0070CBC00C90D80C60EBE00B30F80B0AE08AF09EE4F60A43F
:20014E007C007D00AA08AB09EAC39EFAEB9FC313CA13CAC313CA13CAFBC3EC9AED9B501E2F
:20016E008E828F83C007C006C005C0041200CBD004D005D006D0070CBC00C90D80C61EBE46
:05018E00FF011F80B716
:06007B00E478FFF6D8FD59
:200059007900E94400601B7A00900197780175A000E493F2A308B8000205A0D9F4DAF275B5
:02007900A0FFE6
:200081007800E84400600A790175A000E4F309D8FC7800E84400600C7900900001E4F0A37D
:0400A100D8FCD9FAB4
:0D004C00758109120193E5826003020049ED
:04019300758200224F
:00000001FF
